{
  "contractName": "BatchSendEther",
  "abi": [
    {
      "constant": true,
      "inputs": [
        {
          "name": "",
          "type": "address"
        }
      ],
      "name": "hasUserGottenEther",
      "outputs": [
        {
          "name": "",
          "type": "bool"
        }
      ],
      "payable": false,
      "stateMutability": "view",
      "type": "function",
      "signature": "0x22cf9849"
    },
    {
      "payable": true,
      "stateMutability": "payable",
      "type": "fallback"
    },
    {
      "constant": false,
      "inputs": [
        {
          "name": "users",
          "type": "address[]"
        }
      ],
      "name": "batchSendEth",
      "outputs": [],
      "payable": false,
      "stateMutability": "nonpayable",
      "type": "function",
      "signature": "0xa75a686c"
    }
  ],
  "bytecode": "0x608060405234801561001057600080fd5b5061033d806100206000396000f3fe60806040526004361061004c576000357c0100000000000000000000000000000000000000000000000000000000900463ffffffff16806322cf98491461004e578063a75a686c146100b7575b005b34801561005a57600080fd5b5061009d6004803603602081101561007157600080fd5b81019080803573ffffffffffffffffffffffffffffffffffffffff16906020019092919050505061013d565b604051808215151515815260200191505060405180910390f35b3480156100c357600080fd5b5061013b600480360360208110156100da57600080fd5b81019080803590602001906401000000008111156100f757600080fd5b82018360208201111561010957600080fd5b8035906020019184602083028401116401000000008311171561012b57600080fd5b909192939192939050505061015d565b005b60006020528060005260406000206000915054906101000a900460ff1681565b73667deb5a98f77052cf561658575cf1530ee42c7a73ffffffffffffffffffffffffffffffffffffffff163373ffffffffffffffffffffffffffffffffffffffff161415156101ab57600080fd5b60008090505b8282905081101561030c57600083838381811015156101cc57fe5b9050602002013573ffffffffffffffffffffffffffffffffffffffff1690506000808273ffffffffffffffffffffffffffffffffffffffff1673ffffffffffffffffffffffffffffffffffffffff16815260200190815260200160002060009054906101000a900460ff161561024257506102ff565b838383818110151561025057fe5b9050602002013573ffffffffffffffffffffffffffffffffffffffff1673ffffffffffffffffffffffffffffffffffffffff166108fc66b1a2bc2ec500009081150290604051600060405180830381858888f193505050506000808373ffffffffffffffffffffffffffffffffffffffff1673ffffffffffffffffffffffffffffffffffffffff16815260200190815260200160002060006101000a81548160ff021916908315150217905550505b80806001019150506101b1565b50505056fea165627a7a72305820e23e5df30da38b54190c9e2313d99d453a290e9ab7ac3e17cf393b6b34caa8830029",
  "source": "// 1 Send it ether\n// 2 upload to rinkeby ethscan\n// 3 \n\npragma solidity ^0.5.0;\n\ncontract BatchSendEther {\n  function () external payable {  }\n  mapping (address => bool) public hasUserGottenEther; \n\n  function batchSendEth(address payable[] calldata users) external {\n    require(msg.sender == 0x667dEb5A98f77052cf561658575cF1530Ee42C7a);\n\n    for (uint i = 0; i < users.length; i++) {\n      address payable user = users[i];\n      if (hasUserGottenEther[user]) continue;\n      hasUserGottenEther[user] = users[i].send(.05 ether);\n    }\n  }\n}\n",
  "sourcePath": "/home/nick/workspace/su2/comp-law-and-blockchain-presentation-2019/contracts/BatchSendEther.sol",
  "compiler": {
    "name": "solc",
    "version": "0.5.0+commit.1d4f565a.Emscripten.clang"
  },
  "schemaVersion": "3.0.1",
  "updatedAt": "2019-03-16T04:47:41.039Z",
  "devdoc": {
    "methods": {}
  },
  "userdoc": {
    "methods": {}
  }
}