{
  "contractName": "OilPriceBet",
  "abi": [
    {
      "constant": true,
      "inputs": [],
      "name": "outcomePrice",
      "outputs": [
        {
          "name": "",
          "type": "uint256"
        }
      ],
      "payable": false,
      "stateMutability": "view",
      "type": "function",
      "signature": "0x63843fec"
    },
    {
      "constant": true,
      "inputs": [
        {
          "name": "",
          "type": "address"
        }
      ],
      "name": "userBet",
      "outputs": [
        {
          "name": "",
          "type": "uint256"
        }
      ],
      "payable": false,
      "stateMutability": "view",
      "type": "function",
      "signature": "0x67ad4ec2"
    },
    {
      "constant": true,
      "inputs": [
        {
          "name": "",
          "type": "address"
        }
      ],
      "name": "userCollectedWinings",
      "outputs": [
        {
          "name": "",
          "type": "bool"
        }
      ],
      "payable": false,
      "stateMutability": "view",
      "type": "function",
      "signature": "0x91df0c62"
    },
    {
      "constant": true,
      "inputs": [],
      "name": "strikePrice",
      "outputs": [
        {
          "name": "",
          "type": "uint256"
        }
      ],
      "payable": false,
      "stateMutability": "view",
      "type": "function",
      "signature": "0xc52987cf"
    },
    {
      "payable": true,
      "stateMutability": "payable",
      "type": "fallback"
    },
    {
      "constant": false,
      "inputs": [
        {
          "name": "isAbovePrice",
          "type": "bool"
        }
      ],
      "name": "placeBet",
      "outputs": [],
      "payable": true,
      "stateMutability": "payable",
      "type": "function",
      "signature": "0x096a3778"
    },
    {
      "constant": false,
      "inputs": [],
      "name": "collectWinnings",
      "outputs": [],
      "payable": false,
      "stateMutability": "nonpayable",
      "type": "function",
      "signature": "0x634b5043"
    },
    {
      "constant": true,
      "inputs": [
        {
          "name": "user",
          "type": "address"
        }
      ],
      "name": "didUserWin",
      "outputs": [
        {
          "name": "",
          "type": "bool"
        }
      ],
      "payable": false,
      "stateMutability": "view",
      "type": "function",
      "signature": "0x634544e9"
    },
    {
      "constant": false,
      "inputs": [
        {
          "name": "price",
          "type": "uint256"
        }
      ],
      "name": "setStrikePrice",
      "outputs": [],
      "payable": false,
      "stateMutability": "nonpayable",
      "type": "function",
      "signature": "0xe488cd9f"
    },
    {
      "constant": false,
      "inputs": [
        {
          "name": "price",
          "type": "uint256"
        }
      ],
      "name": "setOutcomePrice",
      "outputs": [],
      "payable": false,
      "stateMutability": "nonpayable",
      "type": "function",
      "signature": "0xc42a09b6"
    }
  ],
  "bytecode": "0x608060405260a060405190810160405280606981526020017f5072696365206f66204d61793139206f696c2066757475726573202d2068747481526020017f70733a2f2f7777772e7468656963652e636f6d2f70726f64756374732f32313981526020017f2f4272656e742d43727564652d467574757265732f646174613f6d61726b657481526020017f49643d3232323437300000000000000000000000000000000000000000000000815250600090805190602001906100c29291906100d5565b503480156100cf57600080fd5b5061017a565b828054600181600116156101000203166002900490600052602060002090601f016020900481019282601f1061011657805160ff1916838001178555610144565b82800160010185558215610144579182015b82811115610143578251825591602001919060010190610128565b5b5090506101519190610155565b5090565b61017791905b8082111561017357600081600090555060010161015b565b5090565b90565b610757806101896000396000f3fe608060405260043610610099576000357c0100000000000000000000000000000000000000000000000000000000900463ffffffff168063096a37781461009b578063634544e9146100cb578063634b50431461013457806363843fec1461014b57806367ad4ec21461017657806391df0c62146101db578063c42a09b614610244578063c52987cf1461027f578063e488cd9f146102aa575b005b6100c9600480360360208110156100b157600080fd5b810190808035151590602001909291905050506102e5565b005b3480156100d757600080fd5b5061011a600480360360208110156100ee57600080fd5b81019080803573ffffffffffffffffffffffffffffffffffffffff1690602001909291905050506103f2565b604051808215151515815260200191505060405180910390f35b34801561014057600080fd5b506101496104f2565b005b34801561015757600080fd5b506101606105d1565b6040518082815260200191505060405180910390f35b34801561018257600080fd5b506101c56004803603602081101561019957600080fd5b81019080803573ffffffffffffffffffffffffffffffffffffffff1690602001909291905050506105d7565b6040518082815260200191505060405180910390f35b3480156101e757600080fd5b5061022a600480360360208110156101fe57600080fd5b81019080803573ffffffffffffffffffffffffffffffffffffffff1690602001909291905050506105ef565b604051808215151515815260200191505060405180910390f35b34801561025057600080fd5b5061027d6004803603602081101561026757600080fd5b810190808035906020019092919050505061060f565b005b34801561028b57600080fd5b50610294610678565b6040518082815260200191505060405180910390f35b3480156102b657600080fd5b506102e3600480360360208110156102cd57600080fd5b810190808035906020019092919050505061067e565b005b60003390506000349050600080600360008573ffffffffffffffffffffffffffffffffffffffff1673ffffffffffffffffffffffffffffffffffffffff1681526020019081526020016000205414905080151561034157600080fd5b662386f26fc100008214151561035657600080fd5b83156103a6576002600360008573ffffffffffffffffffffffffffffffffffffffff1673ffffffffffffffffffffffffffffffffffffffff168152602001908152602001600020819055506103ec565b6001600360008573ffffffffffffffffffffffffffffffffffffffff1673ffffffffffffffffffffffffffffffffffffffff168152602001908152602001600020819055505b50505050565b600080600254141561040757600090506104ed565b60006002600360008573ffffffffffffffffffffffffffffffffffffffff1673ffffffffffffffffffffffffffffffffffffffff1681526020019081526020016000205414905060006001600360008673ffffffffffffffffffffffffffffffffffffffff1673ffffffffffffffffffffffffffffffffffffffff1681526020019081526020016000205414905060006001546002541190506000600154600254111590508380156104b65750815b156104c85760019450505050506104ed565b8280156104d25750805b156104e45760019450505050506104ed565b60009450505050505b919050565b600033905060001515600460008373ffffffffffffffffffffffffffffffffffffffff1673ffffffffffffffffffffffffffffffffffffffff16815260200190815260200160002060009054906101000a900460ff16151514151561055657600080fd5b6001600460008373ffffffffffffffffffffffffffffffffffffffff1673ffffffffffffffffffffffffffffffffffffffff16815260200190815260200160002060006101000a81548160ff0219169083151502179055506105b7816103f2565b156105ce576105cd8166470de4df8200006106e7565b5b50565b60025481565b60036020528060005260406000206000915090505481565b60046020528060005260406000206000915054906101000a900460ff1681565b73667deb5a98f77052cf561658575cf1530ee42c7a73ffffffffffffffffffffffffffffffffffffffff163373ffffffffffffffffffffffffffffffffffffffff1614151561065d57600080fd5b600060025414151561066e57600080fd5b8060028190555050565b60015481565b73667deb5a98f77052cf561658575cf1530ee42c7a73ffffffffffffffffffffffffffffffffffffffff163373ffffffffffffffffffffffffffffffffffffffff161415156106cc57600080fd5b60006001541415156106dd57600080fd5b8060018190555050565b8173ffffffffffffffffffffffffffffffffffffffff166108fc829081150290604051600060405180830381858888f19350505050151561072757600080fd5b505056fea165627a7a7230582034bfbd44ce7b72c9c96608a898e44bb81a638af26a659397c13f1b917337c9580029",
  "source": "// 1 Send it ether\n// 2 upload to rinkeby ethscan\n// 3 \n\npragma solidity ^0.5.0;\n\ncontract OilPriceBet {\n  string betDescription = \"Price of May19 oil futures - https://www.theice.com/products/219/Brent-Crude-Futures/data?marketId=222470\";\n\n  // ------------------ Betting\n  function placeBet(bool isAbovePrice) external payable {\n    address user = msg.sender;\n    uint amountBetting = msg.value;\n    bool userHasNotBetted = userBet[user] == 0;\n    \n    require(userHasNotBetted);\n    require(amountBetting == .01 ether);\n\n    if (isAbovePrice) userBet[user] = 2;  // Above price\n    else              userBet[user] = 1;  // Below price\n  }\n\n  function collectWinnings() external {\n    address payable user = msg.sender;\n\n    require(userCollectedWinings[user] == false);\n\n    userCollectedWinings[user] = true;\n    if (didUserWin(user)) sendEther(user, .02 ether);\n  }\n\n  function didUserWin(address user) public view returns (bool) {\n    if (outcomePrice == 0) return false;\n\n    bool userBetAboveStrikePrice = userBet[user] == 2;\n    bool userBetNotAboveStrikePrice = userBet[user] == 1;\n\n    bool isAboveStrikePrice = outcomePrice > strikePrice;\n    bool isNotAboveStrikePrice = outcomePrice <= strikePrice; \n    if (userBetAboveStrikePrice && isAboveStrikePrice)       return true;\n    if (userBetNotAboveStrikePrice && isNotAboveStrikePrice) return true;\n    return false;\n  }\n\n  // ------------------ Admin\n  function setStrikePrice(uint price) external {\n    require(msg.sender == 0x667dEb5A98f77052cf561658575cF1530Ee42C7a);\n    require(strikePrice == 0);\n    strikePrice = price;\n  }\n\n  function setOutcomePrice(uint price) external {\n    require(msg.sender == 0x667dEb5A98f77052cf561658575cF1530Ee42C7a);\n    require(outcomePrice == 0);\n    outcomePrice = price;\n  }\n\n  // ------------------ Miscallaneous\n  uint public strikePrice;\n  uint public outcomePrice;\n  mapping (address => uint) public userBet;\n  mapping (address => bool) public userCollectedWinings;\n  function () payable external {}\n  function sendEther(address payable user, uint amount) private { require(user.send(amount)); }\n}\n",
  "sourcePath": "/home/nick/workspace/su2/comp-law-and-blockchain-presentation-2019/contracts/OilPriceBet.sol",
  "compiler": {
    "name": "solc",
    "version": "0.5.0+commit.1d4f565a.Emscripten.clang"
  },
  "schemaVersion": "3.0.1",
  "updatedAt": "2019-03-16T04:47:41.045Z",
  "devdoc": {
    "methods": {}
  },
  "userdoc": {
    "methods": {}
  }
}