{
  "contractName": "SimpleStorage",
  "abi": [
    {
      "constant": true,
      "inputs": [
        {
          "name": "",
          "type": "address"
        }
      ],
      "name": "hasUserGottenEther",
      "outputs": [
        {
          "name": "",
          "type": "bool"
        }
      ],
      "payable": false,
      "stateMutability": "view",
      "type": "function",
      "signature": "0x22cf9849"
    },
    {
      "constant": true,
      "inputs": [],
      "name": "outcomePrice",
      "outputs": [
        {
          "name": "",
          "type": "uint256"
        }
      ],
      "payable": false,
      "stateMutability": "view",
      "type": "function",
      "signature": "0x63843fec"
    },
    {
      "constant": true,
      "inputs": [
        {
          "name": "",
          "type": "address"
        }
      ],
      "name": "userBet",
      "outputs": [
        {
          "name": "",
          "type": "uint256"
        }
      ],
      "payable": false,
      "stateMutability": "view",
      "type": "function",
      "signature": "0x67ad4ec2"
    },
    {
      "constant": true,
      "inputs": [
        {
          "name": "",
          "type": "address"
        }
      ],
      "name": "userCollectedWinings",
      "outputs": [
        {
          "name": "",
          "type": "bool"
        }
      ],
      "payable": false,
      "stateMutability": "view",
      "type": "function",
      "signature": "0x91df0c62"
    },
    {
      "constant": true,
      "inputs": [],
      "name": "strikePrice",
      "outputs": [
        {
          "name": "",
          "type": "uint256"
        }
      ],
      "payable": false,
      "stateMutability": "view",
      "type": "function",
      "signature": "0xc52987cf"
    },
    {
      "payable": true,
      "stateMutability": "payable",
      "type": "fallback"
    },
    {
      "constant": false,
      "inputs": [
        {
          "name": "isAbovePrice",
          "type": "bool"
        }
      ],
      "name": "placeBet",
      "outputs": [],
      "payable": true,
      "stateMutability": "payable",
      "type": "function",
      "signature": "0x096a3778"
    },
    {
      "constant": false,
      "inputs": [],
      "name": "collectWinnings",
      "outputs": [],
      "payable": false,
      "stateMutability": "nonpayable",
      "type": "function",
      "signature": "0x634b5043"
    },
    {
      "constant": false,
      "inputs": [
        {
          "name": "price",
          "type": "uint256"
        }
      ],
      "name": "setStrikePrice",
      "outputs": [],
      "payable": false,
      "stateMutability": "nonpayable",
      "type": "function",
      "signature": "0xe488cd9f"
    },
    {
      "constant": false,
      "inputs": [
        {
          "name": "price",
          "type": "uint256"
        }
      ],
      "name": "setOutcomePrice",
      "outputs": [],
      "payable": false,
      "stateMutability": "nonpayable",
      "type": "function",
      "signature": "0xc42a09b6"
    },
    {
      "constant": false,
      "inputs": [
        {
          "name": "users",
          "type": "address[]"
        }
      ],
      "name": "batchSendEth",
      "outputs": [],
      "payable": false,
      "stateMutability": "nonpayable",
      "type": "function",
      "signature": "0xa75a686c"
    },
    {
      "constant": false,
      "inputs": [
        {
          "name": "x",
          "type": "uint256"
        }
      ],
      "name": "set",
      "outputs": [],
      "payable": false,
      "stateMutability": "nonpayable",
      "type": "function",
      "signature": "0x60fe47b1"
    },
    {
      "constant": true,
      "inputs": [],
      "name": "get",
      "outputs": [
        {
          "name": "",
          "type": "uint256"
        }
      ],
      "payable": false,
      "stateMutability": "view",
      "type": "function",
      "signature": "0x6d4ce63c"
    }
  ],
  "bytecode": "0x608060405260a060405190810160405280606981526020017f5072696365206f66204d61793139206f696c2066757475726573202d2068747481526020017f70733a2f2f7777772e7468656963652e636f6d2f70726f64756374732f32313981526020017f2f4272656e742d43727564652d467574757265732f646174613f6d61726b657481526020017f49643d3232323437300000000000000000000000000000000000000000000000815250600090805190602001906100c29291906100d5565b503480156100cf57600080fd5b5061017a565b828054600181600116156101000203166002900490600052602060002090601f016020900481019282601f1061011657805160ff1916838001178555610144565b82800160010185558215610144579182015b82811115610143578251825591602001919060010190610128565b5b5090506101519190610155565b5090565b61017791905b8082111561017357600081600090555060010161015b565b5090565b90565b610a19806101896000396000f3fe6080604052600436106100ba576000357c0100000000000000000000000000000000000000000000000000000000900463ffffffff168063096a3778146100bc57806322cf9849146100ec57806360fe47b114610155578063634b50431461019057806363843fec146101a757806367ad4ec2146101d25780636d4ce63c1461023757806391df0c6214610262578063a75a686c146102cb578063c42a09b614610351578063c52987cf1461038c578063e488cd9f146103b7575b005b6100ea600480360360208110156100d257600080fd5b810190808035151590602001909291905050506103f2565b005b3480156100f857600080fd5b5061013b6004803603602081101561010f57600080fd5b81019080803573ffffffffffffffffffffffffffffffffffffffff1690602001909291905050506104ff565b604051808215151515815260200191505060405180910390f35b34801561016157600080fd5b5061018e6004803603602081101561017857600080fd5b810190808035906020019092919050505061051f565b005b34801561019c57600080fd5b506101a5610529565b005b3480156101b357600080fd5b506101bc6106d3565b6040518082815260200191505060405180910390f35b3480156101de57600080fd5b50610221600480360360208110156101f557600080fd5b81019080803573ffffffffffffffffffffffffffffffffffffffff1690602001909291905050506106d9565b6040518082815260200191505060405180910390f35b34801561024357600080fd5b5061024c6106f1565b6040518082815260200191505060405180910390f35b34801561026e57600080fd5b506102b16004803603602081101561028557600080fd5b81019080803573ffffffffffffffffffffffffffffffffffffffff1690602001909291905050506106fb565b604051808215151515815260200191505060405180910390f35b3480156102d757600080fd5b5061034f600480360360208110156102ee57600080fd5b810190808035906020019064010000000081111561030b57600080fd5b82018360208201111561031d57600080fd5b8035906020019184602083028401116401000000008311171561033f57600080fd5b909192939192939050505061071b565b005b34801561035d57600080fd5b5061038a6004803603602081101561037457600080fd5b81019080803590602001909291905050506108d1565b005b34801561039857600080fd5b506103a161093a565b6040518082815260200191505060405180910390f35b3480156103c357600080fd5b506103f0600480360360208110156103da57600080fd5b8101908080359060200190929190505050610940565b005b60003390506000349050600080600360008573ffffffffffffffffffffffffffffffffffffffff1673ffffffffffffffffffffffffffffffffffffffff1681526020019081526020016000205414905080151561044e57600080fd5b662386f26fc100008214151561046357600080fd5b83156104b3576002600360008573ffffffffffffffffffffffffffffffffffffffff1673ffffffffffffffffffffffffffffffffffffffff168152602001908152602001600020819055506104f9565b6001600360008573ffffffffffffffffffffffffffffffffffffffff1673ffffffffffffffffffffffffffffffffffffffff168152602001908152602001600020819055505b50505050565b60056020528060005260406000206000915054906101000a900460ff1681565b8060068190555050565b600033905060001515600460008373ffffffffffffffffffffffffffffffffffffffff1673ffffffffffffffffffffffffffffffffffffffff16815260200190815260200160002060009054906101000a900460ff16151514151561058d57600080fd5b60006002600360008473ffffffffffffffffffffffffffffffffffffffff1673ffffffffffffffffffffffffffffffffffffffff1681526020019081526020016000205414905060006001600360008573ffffffffffffffffffffffffffffffffffffffff1673ffffffffffffffffffffffffffffffffffffffff1681526020019081526020016000205414905060006001546002541190506000600154600254111590506001600460008773ffffffffffffffffffffffffffffffffffffffff1673ffffffffffffffffffffffffffffffffffffffff16815260200190815260200160002060006101000a81548160ff0219169083151502179055508380156106945750815b156106ab576106aa8566470de4df8200006109a9565b5b8280156106b55750805b156106cc576106cb8566470de4df8200006109a9565b5b5050505050565b60025481565b60036020528060005260406000206000915090505481565b6000600654905090565b60046020528060005260406000206000915054906101000a900460ff1681565b73667deb5a98f77052cf561658575cf1530ee42c7a73ffffffffffffffffffffffffffffffffffffffff163373ffffffffffffffffffffffffffffffffffffffff1614151561076957600080fd5b60008090505b828290508110156108cc576000838383818110151561078a57fe5b9050602002013573ffffffffffffffffffffffffffffffffffffffff169050600560008273ffffffffffffffffffffffffffffffffffffffff1673ffffffffffffffffffffffffffffffffffffffff16815260200190815260200160002060009054906101000a900460ff161561080157506108bf565b838383818110151561080f57fe5b9050602002013573ffffffffffffffffffffffffffffffffffffffff1673ffffffffffffffffffffffffffffffffffffffff166108fc66b1a2bc2ec500009081150290604051600060405180830381858888f19350505050600560008373ffffffffffffffffffffffffffffffffffffffff1673ffffffffffffffffffffffffffffffffffffffff16815260200190815260200160002060006101000a81548160ff021916908315150217905550505b808060010191505061076f565b505050565b73667deb5a98f77052cf561658575cf1530ee42c7a73ffffffffffffffffffffffffffffffffffffffff163373ffffffffffffffffffffffffffffffffffffffff1614151561091f57600080fd5b600060025414151561093057600080fd5b8060028190555050565b60015481565b73667deb5a98f77052cf561658575cf1530ee42c7a73ffffffffffffffffffffffffffffffffffffffff163373ffffffffffffffffffffffffffffffffffffffff1614151561098e57600080fd5b600060015414151561099f57600080fd5b8060018190555050565b8173ffffffffffffffffffffffffffffffffffffffff166108fc829081150290604051600060405180830381858888f1935050505015156109e957600080fd5b505056fea165627a7a72305820ef50e64b61588e2993a3bf0bb57a69867a221ea97978ffc96f7c1fef812349c10029",
  "source": "pragma solidity ^0.5.0;\n\ncontract SimpleStorage {\n  string betDescription = \"Price of May19 oil futures - https://www.theice.com/products/219/Brent-Crude-Futures/data?marketId=222470\";\n\n  // ------------------ Betting\n  function placeBet(bool isAbovePrice) external payable {\n    address user = msg.sender;\n    uint amountBetting = msg.value;\n    bool userHasNotBetted = userBet[user] == 0;\n    \n    require(userHasNotBetted);\n    require(amountBetting == .01 ether);\n\n    if (isAbovePrice) userBet[user] = 2;  // Above price\n    else              userBet[user] = 1;  // Below price\n  }\n\n  function collectWinnings() external {\n    address payable user = msg.sender;\n\n    require(userCollectedWinings[user] == false);\n\n    bool userBetAboveStrikePrice = userBet[user] == 2;\n    bool userBetNotAboveStrikePrice = userBet[user] == 1;\n\n    bool isAboveStrikePrice = outcomePrice > strikePrice;\n    bool isNotAboveStrikePrice = outcomePrice <= strikePrice; \n\n    userCollectedWinings[user] = true;\n    if (userBetAboveStrikePrice && isAboveStrikePrice)       sendEther(user, .02 ether);\n    if (userBetNotAboveStrikePrice && isNotAboveStrikePrice) sendEther(user, .02 ether);\n  }\n\n  // ------------------ Admin\n  function setStrikePrice(uint price) external {\n    require(msg.sender == 0x667dEb5A98f77052cf561658575cF1530Ee42C7a);\n    require(strikePrice == 0);\n    strikePrice = price;\n  }\n\n  function setOutcomePrice(uint price) external {\n    require(msg.sender == 0x667dEb5A98f77052cf561658575cF1530Ee42C7a);\n    require(outcomePrice == 0);\n    outcomePrice = price;\n  }\n\n  function batchSendEth(address payable[] calldata users) external {\n    require(msg.sender == 0x667dEb5A98f77052cf561658575cF1530Ee42C7a);\n\n    for (uint i = 0; i < users.length; i++) {\n      address payable user = users[i];\n      if (hasUserGottenEther[user]) continue;\n      hasUserGottenEther[user] = users[i].send(.05 ether);\n    }\n  }\n\n  // ------------------ Miscallaneous\n  uint public strikePrice;\n  uint public outcomePrice;\n  mapping (address => uint) public userBet;\n  mapping (address => bool) public userCollectedWinings;\n  mapping (address => bool) public hasUserGottenEther; \n  function () payable external {}\n  function sendEther(address payable user, uint amount) private { require(user.send(amount)); }\n\n  // ------------------ Old code\n  uint storedData;\n\n  function set(uint x) public {\n    storedData = x;\n  }\n\n  function get() public view returns (uint) {\n    return storedData;\n  }\n}\n",
  "sourcePath": "/home/nick/workspace/su2/comp-law-and-blockchain-presentation-2019/contracts/SimpleStorage.sol",
  "compiler": {
    "name": "solc",
    "version": "0.5.0+commit.1d4f565a.Emscripten.clang"
  },
  "schemaVersion": "3.0.1",
  "updatedAt": "2019-03-15T23:48:07.658Z",
  "devdoc": {
    "methods": {}
  },
  "userdoc": {
    "methods": {}
  }
}